{
  "_format": "hh-sol-artifact-1",
  "contractName": "RecycleChain",
  "sourceName": "contracts/RecycleChain.sol",
  "abi": [
    {
      "inputs": [],
      "stateMutability": "nonpayable",
      "type": "constructor"
    },
    {
      "anonymous": false,
      "inputs": [
        {
          "indexed": false,
          "internalType": "address",
          "name": "manufacturer",
          "type": "address"
        },
        {
          "indexed": false,
          "internalType": "string",
          "name": "name",
          "type": "string"
        },
        {
          "indexed": false,
          "internalType": "string",
          "name": "location",
          "type": "string"
        },
        {
          "indexed": false,
          "internalType": "string",
          "name": "contact",
          "type": "string"
        }
      ],
      "name": "ManufacturerRegistered",
      "type": "event"
    },
    {
      "anonymous": false,
      "inputs": [
        {
          "indexed": false,
          "internalType": "uint256",
          "name": "productId",
          "type": "uint256"
        },
        {
          "indexed": false,
          "internalType": "string",
          "name": "name",
          "type": "string"
        },
        {
          "indexed": false,
          "internalType": "address",
          "name": "manufacturer",
          "type": "address"
        }
      ],
      "name": "ProductCreated",
      "type": "event"
    },
    {
      "anonymous": false,
      "inputs": [
        {
          "indexed": false,
          "internalType": "string[]",
          "name": "itemIds",
          "type": "string[]"
        },
        {
          "indexed": false,
          "internalType": "uint256",
          "name": "productId",
          "type": "uint256"
        }
      ],
      "name": "ProductItemAdded",
      "type": "event"
    },
    {
      "anonymous": false,
      "inputs": [
        {
          "indexed": false,
          "internalType": "string[]",
          "name": "itemIds",
          "type": "string[]"
        },
        {
          "indexed": false,
          "internalType": "enum RecycleChain.ProductStatus",
          "name": "status",
          "type": "uint8"
        }
      ],
      "name": "ProductItemsStatusChanged",
      "type": "event"
    },
    {
      "anonymous": false,
      "inputs": [
        {
          "indexed": false,
          "internalType": "uint256",
          "name": "productId",
          "type": "uint256"
        },
        {
          "indexed": false,
          "internalType": "string",
          "name": "name",
          "type": "string"
        },
        {
          "indexed": false,
          "internalType": "uint256",
          "name": "weight",
          "type": "uint256"
        }
      ],
      "name": "ToxicItemCreated",
      "type": "event"
    },
    {
      "inputs": [
        {
          "internalType": "string",
          "name": "_name",
          "type": "string"
        },
        {
          "internalType": "string[]",
          "name": "toxicNames",
          "type": "string[]"
        },
        {
          "internalType": "uint256[]",
          "name": "toxicWeights",
          "type": "uint256[]"
        }
      ],
      "name": "addProduct",
      "outputs": [],
      "stateMutability": "nonpayable",
      "type": "function"
    },
    {
      "inputs": [
        {
          "internalType": "uint256",
          "name": "_productId",
          "type": "uint256"
        },
        {
          "internalType": "uint256",
          "name": "_quantity",
          "type": "uint256"
        }
      ],
      "name": "addProductItems",
      "outputs": [],
      "stateMutability": "nonpayable",
      "type": "function"
    },
    {
      "inputs": [
        {
          "internalType": "address",
          "name": "",
          "type": "address"
        },
        {
          "internalType": "uint256",
          "name": "",
          "type": "uint256"
        }
      ],
      "name": "inventory",
      "outputs": [
        {
          "internalType": "string",
          "name": "",
          "type": "string"
        }
      ],
      "stateMutability": "view",
      "type": "function"
    },
    {
      "inputs": [
        {
          "internalType": "address",
          "name": "",
          "type": "address"
        }
      ],
      "name": "manufacturers",
      "outputs": [
        {
          "internalType": "string",
          "name": "name",
          "type": "string"
        },
        {
          "internalType": "string",
          "name": "location",
          "type": "string"
        },
        {
          "internalType": "string",
          "name": "contact",
          "type": "string"
        }
      ],
      "stateMutability": "view",
      "type": "function"
    },
    {
      "inputs": [],
      "name": "owner",
      "outputs": [
        {
          "internalType": "address",
          "name": "",
          "type": "address"
        }
      ],
      "stateMutability": "view",
      "type": "function"
    },
    {
      "inputs": [],
      "name": "productCounter",
      "outputs": [
        {
          "internalType": "uint256",
          "name": "",
          "type": "uint256"
        }
      ],
      "stateMutability": "view",
      "type": "function"
    },
    {
      "inputs": [
        {
          "internalType": "string",
          "name": "",
          "type": "string"
        }
      ],
      "name": "productItems",
      "outputs": [
        {
          "internalType": "string",
          "name": "id",
          "type": "string"
        },
        {
          "internalType": "uint256",
          "name": "productId",
          "type": "uint256"
        },
        {
          "internalType": "enum RecycleChain.ProductStatus",
          "name": "status",
          "type": "uint8"
        }
      ],
      "stateMutability": "view",
      "type": "function"
    },
    {
      "inputs": [
        {
          "internalType": "uint256",
          "name": "",
          "type": "uint256"
        }
      ],
      "name": "products",
      "outputs": [
        {
          "internalType": "uint256",
          "name": "id",
          "type": "uint256"
        },
        {
          "internalType": "string",
          "name": "name",
          "type": "string"
        },
        {
          "internalType": "uint256",
          "name": "quantity",
          "type": "uint256"
        },
        {
          "internalType": "address",
          "name": "manufacturer",
          "type": "address"
        }
      ],
      "stateMutability": "view",
      "type": "function"
    },
    {
      "inputs": [
        {
          "internalType": "string[]",
          "name": "itemIds",
          "type": "string[]"
        }
      ],
      "name": "recycleProductItems",
      "outputs": [],
      "stateMutability": "nonpayable",
      "type": "function"
    },
    {
      "inputs": [
        {
          "internalType": "string",
          "name": "_name",
          "type": "string"
        },
        {
          "internalType": "string",
          "name": "_location",
          "type": "string"
        },
        {
          "internalType": "string",
          "name": "_contact",
          "type": "string"
        }
      ],
      "name": "registerManufacturer",
      "outputs": [],
      "stateMutability": "nonpayable",
      "type": "function"
    },
    {
      "inputs": [
        {
          "internalType": "string[]",
          "name": "itemIds",
          "type": "string[]"
        }
      ],
      "name": "returnProductItems",
      "outputs": [],
      "stateMutability": "nonpayable",
      "type": "function"
    },
    {
      "inputs": [
        {
          "internalType": "string[]",
          "name": "itemIds",
          "type": "string[]"
        }
      ],
      "name": "sellProductItems",
      "outputs": [],
      "stateMutability": "nonpayable",
      "type": "function"
    }
  ],
  "bytecode": "0x6080604052348015600f57600080fd5b506000808190555033600160006101000a81548173ffffffffffffffffffffffffffffffffffffffff021916908373ffffffffffffffffffffffffffffffffffffffff160217905550612e73806100676000396000f3fe608060405234801561001057600080fd5b50600436106100b45760003560e01c806368f222fd1161007157806368f222fd146101635780636b5eb09c146101935780637acc0b20146101c55780638da5cb5b146101f8578063edb4a1e414610216578063f923803714610232576100b4565b806304e13137146100b95780630ac1c59b146100d55780631d0fc9db146100f15780631f16653b1461010d5780633ca278a81461012b57806348788df914610147575b600080fd5b6100d360048036038101906100ce91906118e9565b610264565b005b6100ef60048036038101906100ea9190611b55565b610614565b005b61010b60048036038101906101069190611b9e565b6108cd565b005b610115610a89565b6040516101229190611c54565b60405180910390f35b61014560048036038101906101409190611b55565b610a8f565b005b610161600480360381019061015c9190611b55565b610cde565b005b61017d60048036038101906101789190611ccd565b610f2c565b60405161018a9190611d8c565b60405180910390f35b6101ad60048036038101906101a89190611dae565b610fe5565b6040516101bc93929190611ddb565b60405180910390f35b6101df60048036038101906101da9190611e27565b6111a7565b6040516101ef9493929190611e63565b60405180910390f35b61020061127f565b60405161020d9190611eaf565b60405180910390f35b610230600480360381019061022b9190611f8d565b6112a5565b005b61024c60048036038101906102479190612034565b6115a9565b60405161025b939291906120f4565b60405180910390f35b600a8111156102a8576040517f08c379a000000000000000000000000000000000000000000000000000000000815260040161029f906121a4565b60405180910390fd5b6002600083815260200190815260200160002060030160009054906101000a900473ffffffffffffffffffffffffffffffffffffffff1673ffffffffffffffffffffffffffffffffffffffff163373ffffffffffffffffffffffffffffffffffffffff161461034c576040517f08c379a000000000000000000000000000000000000000000000000000000000815260040161034390612236565b60405180910390fd5b816002600084815260200190815260200160002060000154146103a4576040517f08c379a000000000000000000000000000000000000000000000000000000000815260040161039b906122a2565b60405180910390fd5b60008167ffffffffffffffff8111156103c0576103bf61193f565b5b6040519080825280602002602001820160405280156103f357816020015b60608152602001906001900390816103de5790505b50905060005b828110156105a857600061040c8561167e565b610442600184600260008a81526020019081526020016000206002015461043391906122f1565b61043d91906122f1565b61167e565b6040516020016104539291906123ad565b604051602081830303815290604052905060006040518060600160405280838152602001878152602001600060038111156104915761049061207d565b5b8152509050806003836040516104a791906123dc565b908152602001604051809103902060008201518160000190816104ca91906125ff565b506020820151816001015560408201518160020160006101000a81548160ff02191690836003811115610500576104ff61207d565b5b0217905550905050600460003373ffffffffffffffffffffffffffffffffffffffff1673ffffffffffffffffffffffffffffffffffffffff1681526020019081526020016000208290806001815401808255809150506001900390600052602060002001600090919091909150908161057991906125ff565b508184848151811061058e5761058d6126d1565b5b6020026020010181905250505080806001019150506103f9565b50816002600085815260200190815260200160002060020160008282546105cf91906122f1565b925050819055507f47cb7d051da6240bce1a71550af328425000891b85511d05dddbaf3d3254d909818460405161060792919061280c565b60405180910390a1505050565b60005b815181101561088f576000828281518110610635576106346126d1565b5b60200260200101519050600060038260405161065191906123dc565b9081526020016040518091039020600101549050600060038360405161067791906123dc565b908152602001604051809103902060010154036106c9576040517f08c379a00000000000000000000000000000000000000000000000000000000081526004016106c090612888565b60405180910390fd5b6002600082815260200190815260200160002060030160009054906101000a900473ffffffffffffffffffffffffffffffffffffffff1673ffffffffffffffffffffffffffffffffffffffff163373ffffffffffffffffffffffffffffffffffffffff161461076d576040517f08c379a00000000000000000000000000000000000000000000000000000000081526004016107649061291a565b60405180910390fd5b600060038111156107815761078061207d565b5b6003858581518110610796576107956126d1565b5b60200260200101516040516107ab91906123dc565b908152602001604051809103902060020160009054906101000a900460ff1660038111156107dc576107db61207d565b5b1461081c576040517f08c379a000000000000000000000000000000000000000000000000000000000815260040161081390612986565b60405180910390fd5b60016003858581518110610833576108326126d1565b5b602002602001015160405161084891906123dc565b908152602001604051809103902060020160006101000a81548160ff0219169083600381111561087b5761087a61207d565b5b021790555050508080600101915050610617565b507fd9a749387c94794c130d3387d15255e951f4629ee4c68c2ee584ac608730e1778160016040516108c29291906129a6565b60405180910390a150565b6000835111610911576040517f08c379a000000000000000000000000000000000000000000000000000000000815260040161090890612a48565b60405180910390fd5b6000600560003373ffffffffffffffffffffffffffffffffffffffff1673ffffffffffffffffffffffffffffffffffffffff168152602001908152602001600020600001805461096090612422565b9050146109a2576040517f08c379a000000000000000000000000000000000000000000000000000000000815260040161099990612ab4565b60405180910390fd5b6000604051806060016040528085815260200184815260200183815250905080600560003373ffffffffffffffffffffffffffffffffffffffff1673ffffffffffffffffffffffffffffffffffffffff1681526020019081526020016000206000820151816000019081610a1691906125ff565b506020820151816001019081610a2c91906125ff565b506040820151816002019081610a4291906125ff565b509050507f57b346b79fe14f8142d096bf73f762b9d4ef542e0011250f22e5499155b54dac33858585604051610a7b9493929190612ad4565b60405180910390a150505050565b60005481565b60005b8151811015610ca05760006003838381518110610ab257610ab16126d1565b5b6020026020010151604051610ac791906123dc565b908152602001604051809103902060010154905060016003811115610aef57610aee61207d565b5b6003848481518110610b0457610b036126d1565b5b6020026020010151604051610b1991906123dc565b908152602001604051809103902060020160009054906101000a900460ff166003811115610b4a57610b4961207d565b5b14610b8a576040517f08c379a0000000000000000000000000000000000000000000000000000000008152600401610b8190612b7a565b60405180910390fd5b6002600082815260200190815260200160002060030160009054906101000a900473ffffffffffffffffffffffffffffffffffffffff1673ffffffffffffffffffffffffffffffffffffffff163373ffffffffffffffffffffffffffffffffffffffff1614610c2e576040517f08c379a0000000000000000000000000000000000000000000000000000000008152600401610c259061291a565b60405180910390fd5b60026003848481518110610c4557610c446126d1565b5b6020026020010151604051610c5a91906123dc565b908152602001604051809103902060020160006101000a81548160ff02191690836003811115610c8d57610c8c61207d565b5b0217905550508080600101915050610a92565b507fd9a749387c94794c130d3387d15255e951f4629ee4c68c2ee584ac608730e177816002604051610cd39291906129a6565b60405180910390a150565b60005b8151811015610eee5760006003838381518110610d0157610d006126d1565b5b6020026020010151604051610d1691906123dc565b908152602001604051809103902060010154905060026003811115610d3e57610d3d61207d565b5b6003848481518110610d5357610d526126d1565b5b6020026020010151604051610d6891906123dc565b908152602001604051809103902060020160009054906101000a900460ff166003811115610d9957610d9861207d565b5b14610dd9576040517f08c379a0000000000000000000000000000000000000000000000000000000008152600401610dd090612be6565b60405180910390fd5b6002600082815260200190815260200160002060030160009054906101000a900473ffffffffffffffffffffffffffffffffffffffff1673ffffffffffffffffffffffffffffffffffffffff163373ffffffffffffffffffffffffffffffffffffffff1614610e7d576040517f08c379a0000000000000000000000000000000000000000000000000000000008152600401610e749061291a565b60405180910390fd5b600380848481518110610e9357610e926126d1565b5b6020026020010151604051610ea891906123dc565b908152602001604051809103902060020160006101000a81548160ff02191690836003811115610edb57610eda61207d565b5b0217905550508080600101915050610ce1565b507fd9a749387c94794c130d3387d15255e951f4629ee4c68c2ee584ac608730e177816003604051610f219291906129a6565b60405180910390a150565b60046020528160005260406000208181548110610f4857600080fd5b90600052602060002001600091509150508054610f6490612422565b80601f0160208091040260200160405190810160405280929190818152602001828054610f9090612422565b8015610fdd5780601f10610fb257610100808354040283529160200191610fdd565b820191906000526020600020905b815481529060010190602001808311610fc057829003601f168201915b505050505081565b600560205280600052604060002060009150905080600001805461100890612422565b80601f016020809104026020016040519081016040528092919081815260200182805461103490612422565b80156110815780601f1061105657610100808354040283529160200191611081565b820191906000526020600020905b81548152906001019060200180831161106457829003601f168201915b50505050509080600101805461109690612422565b80601f01602080910402602001604051908101604052809291908181526020018280546110c290612422565b801561110f5780601f106110e45761010080835404028352916020019161110f565b820191906000526020600020905b8154815290600101906020018083116110f257829003601f168201915b50505050509080600201805461112490612422565b80601f016020809104026020016040519081016040528092919081815260200182805461115090612422565b801561119d5780601f106111725761010080835404028352916020019161119d565b820191906000526020600020905b81548152906001019060200180831161118057829003601f168201915b5050505050905083565b60026020528060005260406000206000915090508060000154908060010180546111d090612422565b80601f01602080910402602001604051908101604052809291908181526020018280546111fc90612422565b80156112495780601f1061121e57610100808354040283529160200191611249565b820191906000526020600020905b81548152906001019060200180831161122c57829003601f168201915b5050505050908060020154908060030160009054906101000a900473ffffffffffffffffffffffffffffffffffffffff16905084565b600160009054906101000a900473ffffffffffffffffffffffffffffffffffffffff1681565b60008351116112e9576040517f08c379a00000000000000000000000000000000000000000000000000000000081526004016112e090612c52565b60405180910390fd5b805182511461132d576040517f08c379a000000000000000000000000000000000000000000000000000000000815260040161132490612cbe565b60405180910390fd5b6000600560003373ffffffffffffffffffffffffffffffffffffffff1673ffffffffffffffffffffffffffffffffffffffff168152602001908152602001600020600001805461137c90612422565b9050116113be576040517f08c379a00000000000000000000000000000000000000000000000000000000081526004016113b590612d2a565b60405180910390fd5b6000808154809291906113d090612d4a565b919050555060008054905060006002600083815260200190815260200160002090508181600001819055508481600101908161140c91906125ff565b5060008160020181905550338160030160006101000a81548173ffffffffffffffffffffffffffffffffffffffff021916908373ffffffffffffffffffffffffffffffffffffffff1602179055507faf6ffb6277511513e7d579327cc1fc57f0266df2fb11a60b13487b8c9cd2c38882863360405161148d93929190612d92565b60405180910390a160005b84518110156115a157600060405180604001604052808784815181106114c1576114c06126d1565b5b602002602001015181526020018684815181106114e1576114e06126d1565b5b6020026020010151815250905060026000858152602001908152602001600020600401819080600181540180825580915050600190039060005260206000209060020201600090919091909150600082015181600001908161154391906125ff565b506020820151816001015550507f8da7761d083dc8b6cf8015513c133dc99b31548fcf7b36249437199c03b6e6f2848260000151836020015160405161158b93929190612dd0565b60405180910390a1508080600101915050611498565b505050505050565b6003818051602081018201805184825260208301602085012081835280955050505050506000915090508060000180546115e290612422565b80601f016020809104026020016040519081016040528092919081815260200182805461160e90612422565b801561165b5780601f106116305761010080835404028352916020019161165b565b820191906000526020600020905b81548152906001019060200180831161163e57829003601f168201915b5050505050908060010154908060020160009054906101000a900460ff16905083565b60606000600161168d8461174c565b01905060008167ffffffffffffffff8111156116ac576116ab61193f565b5b6040519080825280601f01601f1916602001820160405280156116de5781602001600182028036833780820191505090505b509050600082602001820190505b600115611741578080600190039150507f3031323334353637383961626364656600000000000000000000000000000000600a86061a8153600a858161173557611734612e0e565b5b049450600085036116ec575b819350505050919050565b600080600090507a184f03e93ff9f4daa797ed6e38ed64bf6a1f01000000000000000083106117aa577a184f03e93ff9f4daa797ed6e38ed64bf6a1f01000000000000000083816117a05761179f612e0e565b5b0492506040810190505b6d04ee2d6d415b85acef810000000083106117e7576d04ee2d6d415b85acef810000000083816117dd576117dc612e0e565b5b0492506020810190505b662386f26fc10000831061181657662386f26fc10000838161180c5761180b612e0e565b5b0492506010810190505b6305f5e100831061183f576305f5e100838161183557611834612e0e565b5b0492506008810190505b612710831061186457612710838161185a57611859612e0e565b5b0492506004810190505b60648310611887576064838161187d5761187c612e0e565b5b0492506002810190505b600a8310611896576001810190505b80915050919050565b6000604051905090565b600080fd5b600080fd5b6000819050919050565b6118c6816118b3565b81146118d157600080fd5b50565b6000813590506118e3816118bd565b92915050565b60008060408385031215611900576118ff6118a9565b5b600061190e858286016118d4565b925050602061191f858286016118d4565b9150509250929050565b600080fd5b6000601f19601f8301169050919050565b7f4e487b7100000000000000000000000000000000000000000000000000000000600052604160045260246000fd5b6119778261192e565b810181811067ffffffffffffffff821117156119965761199561193f565b5b80604052505050565b60006119a961189f565b90506119b5828261196e565b919050565b600067ffffffffffffffff8211156119d5576119d461193f565b5b602082029050602081019050919050565b600080fd5b600080fd5b600067ffffffffffffffff821115611a0b57611a0a61193f565b5b611a148261192e565b9050602081019050919050565b82818337600083830152505050565b6000611a43611a3e846119f0565b61199f565b905082815260208101848484011115611a5f57611a5e6119eb565b5b611a6a848285611a21565b509392505050565b600082601f830112611a8757611a86611929565b5b8135611a97848260208601611a30565b91505092915050565b6000611ab3611aae846119ba565b61199f565b90508083825260208201905060208402830185811115611ad657611ad56119e6565b5b835b81811015611b1d57803567ffffffffffffffff811115611afb57611afa611929565b5b808601611b088982611a72565b85526020850194505050602081019050611ad8565b5050509392505050565b600082601f830112611b3c57611b3b611929565b5b8135611b4c848260208601611aa0565b91505092915050565b600060208284031215611b6b57611b6a6118a9565b5b600082013567ffffffffffffffff811115611b8957611b886118ae565b5b611b9584828501611b27565b91505092915050565b600080600060608486031215611bb757611bb66118a9565b5b600084013567ffffffffffffffff811115611bd557611bd46118ae565b5b611be186828701611a72565b935050602084013567ffffffffffffffff811115611c0257611c016118ae565b5b611c0e86828701611a72565b925050604084013567ffffffffffffffff811115611c2f57611c2e6118ae565b5b611c3b86828701611a72565b9150509250925092565b611c4e816118b3565b82525050565b6000602082019050611c696000830184611c45565b92915050565b600073ffffffffffffffffffffffffffffffffffffffff82169050919050565b6000611c9a82611c6f565b9050919050565b611caa81611c8f565b8114611cb557600080fd5b50565b600081359050611cc781611ca1565b92915050565b60008060408385031215611ce457611ce36118a9565b5b6000611cf285828601611cb8565b9250506020611d03858286016118d4565b9150509250929050565b600081519050919050565b600082825260208201905092915050565b60005b83811015611d47578082015181840152602081019050611d2c565b60008484015250505050565b6000611d5e82611d0d565b611d688185611d18565b9350611d78818560208601611d29565b611d818161192e565b840191505092915050565b60006020820190508181036000830152611da68184611d53565b905092915050565b600060208284031215611dc457611dc36118a9565b5b6000611dd284828501611cb8565b91505092915050565b60006060820190508181036000830152611df58186611d53565b90508181036020830152611e098185611d53565b90508181036040830152611e1d8184611d53565b9050949350505050565b600060208284031215611e3d57611e3c6118a9565b5b6000611e4b848285016118d4565b91505092915050565b611e5d81611c8f565b82525050565b6000608082019050611e786000830187611c45565b8181036020830152611e8a8186611d53565b9050611e996040830185611c45565b611ea66060830184611e54565b95945050505050565b6000602082019050611ec46000830184611e54565b92915050565b600067ffffffffffffffff821115611ee557611ee461193f565b5b602082029050602081019050919050565b6000611f09611f0484611eca565b61199f565b90508083825260208201905060208402830185811115611f2c57611f2b6119e6565b5b835b81811015611f555780611f4188826118d4565b845260208401935050602081019050611f2e565b5050509392505050565b600082601f830112611f7457611f73611929565b5b8135611f84848260208601611ef6565b91505092915050565b600080600060608486031215611fa657611fa56118a9565b5b600084013567ffffffffffffffff811115611fc457611fc36118ae565b5b611fd086828701611a72565b935050602084013567ffffffffffffffff811115611ff157611ff06118ae565b5b611ffd86828701611b27565b925050604084013567ffffffffffffffff81111561201e5761201d6118ae565b5b61202a86828701611f5f565b9150509250925092565b60006020828403121561204a576120496118a9565b5b600082013567ffffffffffffffff811115612068576120676118ae565b5b61207484828501611a72565b91505092915050565b7f4e487b7100000000000000000000000000000000000000000000000000000000600052602160045260246000fd5b600481106120bd576120bc61207d565b5b50565b60008190506120ce826120ac565b919050565b60006120de826120c0565b9050919050565b6120ee816120d3565b82525050565b6000606082019050818103600083015261210e8186611d53565b905061211d6020830185611c45565b61212a60408301846120e5565b949350505050565b7f43616e6e6f7420616464206d6f7265207468616e2031302070726f647563742060008201527f6974656d7320617420612074696d650000000000000000000000000000000000602082015250565b600061218e602f83611d18565b915061219982612132565b604082019050919050565b600060208201905081810360008301526121bd81612181565b9050919050565b7f4f6e6c79207468652070726f64756374206d616e75666163747572657220636160008201527f6e206164642070726f64756374206974656d7300000000000000000000000000602082015250565b6000612220603383611d18565b915061222b826121c4565b604082019050919050565b6000602082019050818103600083015261224f81612213565b9050919050565b7f50726f6475637420646f6573206e6f742065786973742e000000000000000000600082015250565b600061228c601783611d18565b915061229782612256565b602082019050919050565b600060208201905081810360008301526122bb8161227f565b9050919050565b7f4e487b7100000000000000000000000000000000000000000000000000000000600052601160045260246000fd5b60006122fc826118b3565b9150612307836118b3565b925082820190508082111561231f5761231e6122c2565b5b92915050565b600081905092915050565b600061233b82611d0d565b6123458185612325565b9350612355818560208601611d29565b80840191505092915050565b7f2d00000000000000000000000000000000000000000000000000000000000000600082015250565b6000612397600183612325565b91506123a282612361565b600182019050919050565b60006123b98285612330565b91506123c48261238a565b91506123d08284612330565b91508190509392505050565b60006123e88284612330565b915081905092915050565b7f4e487b7100000000000000000000000000000000000000000000000000000000600052602260045260246000fd5b6000600282049050600182168061243a57607f821691505b60208210810361244d5761244c6123f3565b5b50919050565b60008190508160005260206000209050919050565b60006020601f8301049050919050565b600082821b905092915050565b6000600883026124b57fffffffffffffffffffffffffffffffffffffffffffffffffffffffffffffffff82612478565b6124bf8683612478565b95508019841693508086168417925050509392505050565b6000819050919050565b60006124fc6124f76124f2846118b3565b6124d7565b6118b3565b9050919050565b6000819050919050565b612516836124e1565b61252a61252282612503565b848454612485565b825550505050565b600090565b61253f612532565b61254a81848461250d565b505050565b5b8181101561256e57612563600082612537565b600181019050612550565b5050565b601f8211156125b35761258481612453565b61258d84612468565b8101602085101561259c578190505b6125b06125a885612468565b83018261254f565b50505b505050565b600082821c905092915050565b60006125d6600019846008026125b8565b1980831691505092915050565b60006125ef83836125c5565b9150826002028217905092915050565b61260882611d0d565b67ffffffffffffffff8111156126215761262061193f565b5b61262b8254612422565b612636828285612572565b600060209050601f8311600181146126695760008415612657578287015190505b61266185826125e3565b8655506126c9565b601f19841661267786612453565b60005b8281101561269f5784890151825560018201915060208501945060208101905061267a565b868310156126bc57848901516126b8601f8916826125c5565b8355505b6001600288020188555050505b505050505050565b7f4e487b7100000000000000000000000000000000000000000000000000000000600052603260045260246000fd5b600081519050919050565b600082825260208201905092915050565b6000819050602082019050919050565b600082825260208201905092915050565b600061274882611d0d565b612752818561272c565b9350612762818560208601611d29565b61276b8161192e565b840191505092915050565b6000612782838361273d565b905092915050565b6000602082019050919050565b60006127a282612700565b6127ac818561270b565b9350836020820285016127be8561271c565b8060005b858110156127fa57848403895281516127db8582612776565b94506127e68361278a565b925060208a019950506001810190506127c2565b50829750879550505050505092915050565b600060408201905081810360008301526128268185612797565b90506128356020830184611c45565b9392505050565b7f50726f64756374206974656d20646f6573206e6f742065786973740000000000600082015250565b6000612872601b83611d18565b915061287d8261283c565b602082019050919050565b600060208201905081810360008301526128a181612865565b9050919050565b7f4f6e6c79207468652070726f64756374206d616e75666163747572657220636160008201527f6e2073656c6c2070726f64756374206974656d732e0000000000000000000000602082015250565b6000612904603583611d18565b915061290f826128a8565b604082019050919050565b60006020820190508181036000830152612933816128f7565b9050919050565b7f50726f64756374204974656d2063616e6e6f7420626520736f6c640000000000600082015250565b6000612970601b83611d18565b915061297b8261293a565b602082019050919050565b6000602082019050818103600083015261299f81612963565b9050919050565b600060408201905081810360008301526129c08185612797565b90506129cf60208301846120e5565b9392505050565b7f4d616e7566616374757265722773206e616d652063616e6e6f7420626520656d60008201527f7074790000000000000000000000000000000000000000000000000000000000602082015250565b6000612a32602383611d18565b9150612a3d826129d6565b604082019050919050565b60006020820190508181036000830152612a6181612a25565b9050919050565b7f4d616e75666163747572657220616c7265616479207265676973746572656400600082015250565b6000612a9e601f83611d18565b9150612aa982612a68565b602082019050919050565b60006020820190508181036000830152612acd81612a91565b9050919050565b6000608082019050612ae96000830187611e54565b8181036020830152612afb8186611d53565b90508181036040830152612b0f8185611d53565b90508181036060830152612b238184611d53565b905095945050505050565b7f50726f64756374204974656d2063616e6e6f742062652072657475726e656400600082015250565b6000612b64601f83611d18565b9150612b6f82612b2e565b602082019050919050565b60006020820190508181036000830152612b9381612b57565b9050919050565b7f50726f64756374204974656d2063616e6e6f742062652072656379636c656400600082015250565b6000612bd0601f83611d18565b9150612bdb82612b9a565b602082019050919050565b60006020820190508181036000830152612bff81612bc3565b9050919050565b7f50726f64756374206e616d652063616e6e6f7420626520656d70747900000000600082015250565b6000612c3c601c83611d18565b9150612c4782612c06565b602082019050919050565b60006020820190508181036000830152612c6b81612c2f565b9050919050565b7f546f786963206974656d73206172726179206d69736d61746368000000000000600082015250565b6000612ca8601a83611d18565b9150612cb382612c72565b602082019050919050565b60006020820190508181036000830152612cd781612c9b565b9050919050565b7f4d616e756661637475726572206e6f7420726567697374657265640000000000600082015250565b6000612d14601b83611d18565b9150612d1f82612cde565b602082019050919050565b60006020820190508181036000830152612d4381612d07565b9050919050565b6000612d55826118b3565b91507fffffffffffffffffffffffffffffffffffffffffffffffffffffffffffffffff8203612d8757612d866122c2565b5b600182019050919050565b6000606082019050612da76000830186611c45565b8181036020830152612db98185611d53565b9050612dc86040830184611e54565b949350505050565b6000606082019050612de56000830186611c45565b8181036020830152612df78185611d53565b9050612e066040830184611c45565b949350505050565b7f4e487b7100000000000000000000000000000000000000000000000000000000600052601260045260246000fdfea264697066735822122047750648c9b855e1cd67706a818195c7cfcc4b8a4e43f96d91f7af1b51e5dab964736f6c634300081c0033",
  "linkReferences": {},
  "deployedLinkReferences": {}
}